{
  "_format": "hh-sol-artifact-1",
  "contractName": "ERC721",
  "sourceName": "contracts/UniversityDgree.sol",
  "abi": [
    {
      "inputs": [
        {
          "internalType": "string",
          "name": "name_",
          "type": "string"
        },
        {
          "internalType": "string",
          "name": "symbol_",
          "type": "string"
        }
      ],
      "stateMutability": "nonpayable",
      "type": "constructor"
    },
    {
      "anonymous": false,
      "inputs": [
        {
          "indexed": true,
          "internalType": "address",
          "name": "owner",
          "type": "address"
        },
        {
          "indexed": true,
          "internalType": "address",
          "name": "approved",
          "type": "address"
        },
        {
          "indexed": true,
          "internalType": "uint256",
          "name": "tokenId",
          "type": "uint256"
        }
      ],
      "name": "Approval",
      "type": "event"
    },
    {
      "anonymous": false,
      "inputs": [
        {
          "indexed": true,
          "internalType": "address",
          "name": "owner",
          "type": "address"
        },
        {
          "indexed": true,
          "internalType": "address",
          "name": "operator",
          "type": "address"
        },
        {
          "indexed": false,
          "internalType": "bool",
          "name": "approved",
          "type": "bool"
        }
      ],
      "name": "ApprovalForAll",
      "type": "event"
    },
    {
      "anonymous": false,
      "inputs": [
        {
          "indexed": true,
          "internalType": "address",
          "name": "from",
          "type": "address"
        },
        {
          "indexed": true,
          "internalType": "address",
          "name": "to",
          "type": "address"
        },
        {
          "indexed": true,
          "internalType": "uint256",
          "name": "tokenId",
          "type": "uint256"
        }
      ],
      "name": "Transfer",
      "type": "event"
    },
    {
      "inputs": [
        {
          "internalType": "address",
          "name": "to",
          "type": "address"
        },
        {
          "internalType": "uint256",
          "name": "tokenId",
          "type": "uint256"
        }
      ],
      "name": "approve",
      "outputs": [],
      "stateMutability": "nonpayable",
      "type": "function"
    },
    {
      "inputs": [
        {
          "internalType": "address",
          "name": "owner",
          "type": "address"
        }
      ],
      "name": "balanceOf",
      "outputs": [
        {
          "internalType": "uint256",
          "name": "",
          "type": "uint256"
        }
      ],
      "stateMutability": "view",
      "type": "function"
    },
    {
      "inputs": [
        {
          "internalType": "uint256",
          "name": "tokenId",
          "type": "uint256"
        }
      ],
      "name": "getApproved",
      "outputs": [
        {
          "internalType": "address",
          "name": "",
          "type": "address"
        }
      ],
      "stateMutability": "view",
      "type": "function"
    },
    {
      "inputs": [
        {
          "internalType": "address",
          "name": "owner",
          "type": "address"
        },
        {
          "internalType": "address",
          "name": "operator",
          "type": "address"
        }
      ],
      "name": "isApprovedForAll",
      "outputs": [
        {
          "internalType": "bool",
          "name": "",
          "type": "bool"
        }
      ],
      "stateMutability": "view",
      "type": "function"
    },
    {
      "inputs": [],
      "name": "name",
      "outputs": [
        {
          "internalType": "string",
          "name": "",
          "type": "string"
        }
      ],
      "stateMutability": "view",
      "type": "function"
    },
    {
      "inputs": [
        {
          "internalType": "uint256",
          "name": "tokenId",
          "type": "uint256"
        }
      ],
      "name": "ownerOf",
      "outputs": [
        {
          "internalType": "address",
          "name": "",
          "type": "address"
        }
      ],
      "stateMutability": "view",
      "type": "function"
    },
    {
      "inputs": [
        {
          "internalType": "address",
          "name": "operator",
          "type": "address"
        },
        {
          "internalType": "bool",
          "name": "approved",
          "type": "bool"
        }
      ],
      "name": "setApprovalForAll",
      "outputs": [],
      "stateMutability": "nonpayable",
      "type": "function"
    },
    {
      "inputs": [
        {
          "internalType": "bytes4",
          "name": "interfaceId",
          "type": "bytes4"
        }
      ],
      "name": "supportsInterface",
      "outputs": [
        {
          "internalType": "bool",
          "name": "",
          "type": "bool"
        }
      ],
      "stateMutability": "view",
      "type": "function"
    },
    {
      "inputs": [],
      "name": "symbol",
      "outputs": [
        {
          "internalType": "string",
          "name": "",
          "type": "string"
        }
      ],
      "stateMutability": "view",
      "type": "function"
    },
    {
      "inputs": [
        {
          "internalType": "uint256",
          "name": "tokenId",
          "type": "uint256"
        }
      ],
      "name": "tokenURI",
      "outputs": [
        {
          "internalType": "string",
          "name": "",
          "type": "string"
        }
      ],
      "stateMutability": "view",
      "type": "function"
    },
    {
      "inputs": [
        {
          "internalType": "address",
          "name": "from",
          "type": "address"
        },
        {
          "internalType": "address",
          "name": "to",
          "type": "address"
        },
        {
          "internalType": "uint256",
          "name": "tokenId",
          "type": "uint256"
        }
      ],
      "name": "transferFrom",
      "outputs": [],
      "stateMutability": "nonpayable",
      "type": "function"
    }
  ],
  "bytecode": "0x60806040523480156200001157600080fd5b506040516200116b3803806200116b8339810160408190526200003491620001c5565b81516200004990600090602085019062000068565b5080516200005f90600190602084019062000068565b50505062000282565b82805462000076906200022f565b90600052602060002090601f0160209004810192826200009a5760008555620000e5565b82601f10620000b557805160ff1916838001178555620000e5565b82800160010185558215620000e5579182015b82811115620000e5578251825591602001919060010190620000c8565b50620000f3929150620000f7565b5090565b5b80821115620000f35760008155600101620000f8565b600082601f8301126200012057600080fd5b81516001600160401b03808211156200013d576200013d6200026c565b604051601f8301601f19908116603f011681019082821181831017156200016857620001686200026c565b816040528381526020925086838588010111156200018557600080fd5b600091505b83821015620001a957858201830151818301840152908201906200018a565b83821115620001bb5760008385830101525b9695505050505050565b60008060408385031215620001d957600080fd5b82516001600160401b0380821115620001f157600080fd5b620001ff868387016200010e565b935060208501519150808211156200021657600080fd5b5062000225858286016200010e565b9150509250929050565b600181811c908216806200024457607f821691505b602082108114156200026657634e487b7160e01b600052602260045260246000fd5b50919050565b634e487b7160e01b600052604160045260246000fd5b610ed980620002926000396000f3fe608060405234801561001057600080fd5b50600436106100a95760003560e01c80636352211e116100715780636352211e1461013e57806370a082311461015157806395d89b4114610172578063a22cb4651461017a578063c87b56dd1461018d578063e985e9c5146101a057600080fd5b806301ffc9a7146100ae57806306fdde03146100d6578063081812fc146100eb578063095ea7b31461011657806323b872dd1461012b575b600080fd5b6100c16100bc366004610cc9565b6101dc565b60405190151581526020015b60405180910390f35b6100de61022e565b6040516100cd9190610d3b565b6100fe6100f9366004610cf3565b6102c0565b6040516001600160a01b0390911681526020016100cd565b610129610124366004610c9f565b61035a565b005b610129610139366004610c27565b610470565b6100fe61014c366004610cf3565b6104eb565b61016461015f366004610bd9565b610562565b6040519081526020016100cd565b6100de6105e9565b610129610188366004610c63565b6105f8565b6100de61019b366004610cf3565b610607565b6100c16101ae366004610bf4565b6001600160a01b03918216600090815260056020908152604080832093909416825291909152205460ff1690565b60006001600160e01b03198216637aa5391d60e01b148061020d57506001600160e01b03198216635b5e139f60e01b145b8061022857506301ffc9a760e01b6001600160e01b03198316145b92915050565b60606000805461023d90610de1565b80601f016020809104026020016040519081016040528092919081815260200182805461026990610de1565b80156102b65780601f1061028b576101008083540402835291602001916102b6565b820191906000526020600020905b81548152906001019060200180831161029957829003601f168201915b5050505050905090565b6000818152600260205260408120546001600160a01b031661033e5760405162461bcd60e51b815260206004820152602c60248201527f4552433732313a20617070726f76656420717565727920666f72206e6f6e657860448201526b34b9ba32b73a103a37b5b2b760a11b60648201526084015b60405180910390fd5b506000908152600460205260409020546001600160a01b031690565b6000610365826104eb565b9050806001600160a01b0316836001600160a01b031614156103d35760405162461bcd60e51b815260206004820152602160248201527f4552433732313a20617070726f76616c20746f2063757272656e74206f776e656044820152603960f91b6064820152608401610335565b336001600160a01b03821614806103ef57506103ef81336101ae565b6104615760405162461bcd60e51b815260206004820152603860248201527f4552433732313a20617070726f76652063616c6c6572206973206e6f74206f7760448201527f6e6572206e6f7220617070726f76656420666f7220616c6c00000000000000006064820152608401610335565b61046b83836106ef565b505050565b61047a338261075d565b6104e05760405162461bcd60e51b815260206004820152603160248201527f4552433732313a207472616e736665722063616c6c6572206973206e6f74206f6044820152701ddb995c881b9bdc88185c1c1c9bdd9959607a1b6064820152608401610335565b61046b838383610854565b6000818152600260205260408120546001600160a01b0316806102285760405162461bcd60e51b815260206004820152602960248201527f4552433732313a206f776e657220717565727920666f72206e6f6e657869737460448201526832b73a103a37b5b2b760b91b6064820152608401610335565b60006001600160a01b0382166105cd5760405162461bcd60e51b815260206004820152602a60248201527f4552433732313a2062616c616e636520717565727920666f7220746865207a65604482015269726f206164647265737360b01b6064820152608401610335565b506001600160a01b031660009081526003602052604090205490565b60606001805461023d90610de1565b6106033383836109f0565b5050565b6000818152600260205260409020546060906001600160a01b03166106865760405162461bcd60e51b815260206004820152602f60248201527f4552433732314d657461646174613a2055524920717565727920666f72206e6f60448201526e3732bc34b9ba32b73a103a37b5b2b760891b6064820152608401610335565b600061069d60408051602081019091526000815290565b905060008151116106bd57604051806020016040528060008152506106e8565b806106c784610abf565b6040516020016106d8929190610d0c565b6040516020818303038152906040525b9392505050565b600081815260046020526040902080546001600160a01b0319166001600160a01b0384169081179091558190610724826104eb565b6001600160a01b03167f8c5be1e5ebec7d5bd14f71427d1e84f3dd0314c0f7b2291e5b200ac8c7c3b92560405160405180910390a45050565b6000818152600260205260408120546001600160a01b03166107d65760405162461bcd60e51b815260206004820152602c60248201527f4552433732313a206f70657261746f7220717565727920666f72206e6f6e657860448201526b34b9ba32b73a103a37b5b2b760a11b6064820152608401610335565b60006107e1836104eb565b9050806001600160a01b0316846001600160a01b0316148061082857506001600160a01b0380821660009081526005602090815260408083209388168352929052205460ff165b8061084c5750836001600160a01b0316610841846102c0565b6001600160a01b0316145b949350505050565b826001600160a01b0316610867826104eb565b6001600160a01b0316146108cb5760405162461bcd60e51b815260206004820152602560248201527f4552433732313a207472616e736665722066726f6d20696e636f72726563742060448201526437bbb732b960d91b6064820152608401610335565b6001600160a01b03821661092d5760405162461bcd60e51b8152602060048201526024808201527f4552433732313a207472616e7366657220746f20746865207a65726f206164646044820152637265737360e01b6064820152608401610335565b6109386000826106ef565b6001600160a01b0383166000908152600360205260408120805460019290610961908490610d9a565b90915550506001600160a01b038216600090815260036020526040812080546001929061098f908490610d6e565b909155505060008181526002602052604080822080546001600160a01b0319166001600160a01b0386811691821790925591518493918716917fddf252ad1be2c89b69c2b068fc378daa952ba7f163c4a11628f55a4df523b3ef91a4505050565b816001600160a01b0316836001600160a01b03161415610a525760405162461bcd60e51b815260206004820152601960248201527f4552433732313a20617070726f766520746f2063616c6c6572000000000000006044820152606401610335565b6001600160a01b03838116600081815260056020908152604080832094871680845294825291829020805460ff191686151590811790915591519182527f17307eab39ab6107e8899845ad3d59bd9653f200f220920489ca2b5937696c31910160405180910390a3505050565b606081610ae35750506040805180820190915260018152600360fc1b602082015290565b8160005b8115610b0d5780610af781610e1c565b9150610b069050600a83610d86565b9150610ae7565b60008167ffffffffffffffff811115610b2857610b28610e8d565b6040519080825280601f01601f191660200182016040528015610b52576020820181803683370190505b5090505b841561084c57610b67600183610d9a565b9150610b74600a86610e37565b610b7f906030610d6e565b60f81b818381518110610b9457610b94610e77565b60200101906001600160f81b031916908160001a905350610bb6600a86610d86565b9450610b56565b80356001600160a01b0381168114610bd457600080fd5b919050565b600060208284031215610beb57600080fd5b6106e882610bbd565b60008060408385031215610c0757600080fd5b610c1083610bbd565b9150610c1e60208401610bbd565b90509250929050565b600080600060608486031215610c3c57600080fd5b610c4584610bbd565b9250610c5360208501610bbd565b9150604084013590509250925092565b60008060408385031215610c7657600080fd5b610c7f83610bbd565b915060208301358015158114610c9457600080fd5b809150509250929050565b60008060408385031215610cb257600080fd5b610cbb83610bbd565b946020939093013593505050565b600060208284031215610cdb57600080fd5b81356001600160e01b0319811681146106e857600080fd5b600060208284031215610d0557600080fd5b5035919050565b60008351610d1e818460208801610db1565b835190830190610d32818360208801610db1565b01949350505050565b6020815260008251806020840152610d5a816040850160208701610db1565b601f01601f19169190910160400192915050565b60008219821115610d8157610d81610e4b565b500190565b600082610d9557610d95610e61565b500490565b600082821015610dac57610dac610e4b565b500390565b60005b83811015610dcc578181015183820152602001610db4565b83811115610ddb576000848401525b50505050565b600181811c90821680610df557607f821691505b60208210811415610e1657634e487b7160e01b600052602260045260246000fd5b50919050565b6000600019821415610e3057610e30610e4b565b5060010190565b600082610e4657610e46610e61565b500690565b634e487b7160e01b600052601160045260246000fd5b634e487b7160e01b600052601260045260246000fd5b634e487b7160e01b600052603260045260246000fd5b634e487b7160e01b600052604160045260246000fdfea2646970667358221220a6f5aff71e69f62506daf61d8df34820b0535ddd557d2ebd12a71f087f8ec9e364736f6c63430008070033",
  "linkReferences": {},
  "deployedLinkReferences": {}
}